{
	"_format": "hh-sol-artifact-1",
	"contractName": "Crowdsale",
	"sourceName": "contracts/Crowdsale.sol",
	"abi": [
		{
			"inputs": [
				{
					"internalType": "address payable",
					"name": "_wallet",
					"type": "address"
				},
				{
					"internalType": "contract MTB",
					"name": "_token",
					"type": "address"
				},
				{
					"internalType": "uint256",
					"name": "_cap",
					"type": "uint256"
				},
				{
					"internalType": "uint256",
					"name": "_openingTime",
					"type": "uint256"
				},
				{
					"internalType": "uint256",
					"name": "_closingTime",
					"type": "uint256"
				},
				{
					"internalType": "uint256",
					"name": "_rate",
					"type": "uint256"
				}
			],
			"stateMutability": "nonpayable",
			"type": "constructor"
		},
		{
			"anonymous": false,
			"inputs": [],
			"name": "CrowdsaleFinalized",
			"type": "event"
		},
		{
			"anonymous": false,
			"inputs": [
				{
					"indexed": true,
					"internalType": "address",
					"name": "purchaser",
					"type": "address"
				},
				{
					"indexed": false,
					"internalType": "uint256",
					"name": "value",
					"type": "uint256"
				},
				{
					"indexed": false,
					"internalType": "uint256",
					"name": "amount",
					"type": "uint256"
				}
			],
			"name": "TokensPurchased",
			"type": "event"
		},
		{
			"inputs": [
				{
					"internalType": "address",
					"name": "account",
					"type": "address"
				}
			],
			"name": "balanceOf",
			"outputs": [
				{
					"internalType": "uint256",
					"name": "",
					"type": "uint256"
				}
			],
			"stateMutability": "view",
			"type": "function"
		},
		{
			"inputs": [],
			"name": "balanceOfCrowdsale",
			"outputs": [
				{
					"internalType": "uint256",
					"name": "",
					"type": "uint256"
				}
			],
			"stateMutability": "view",
			"type": "function"
		},
		{
			"inputs": [],
			"name": "buyTokens",
			"outputs": [],
			"stateMutability": "payable",
			"type": "function"
		},
		{
			"inputs": [],
			"name": "cap",
			"outputs": [
				{
					"internalType": "uint256",
					"name": "",
					"type": "uint256"
				}
			],
			"stateMutability": "view",
			"type": "function"
		},
		{
			"inputs": [],
			"name": "closingTime",
			"outputs": [
				{
					"internalType": "uint256",
					"name": "",
					"type": "uint256"
				}
			],
			"stateMutability": "view",
			"type": "function"
		},
		{
			"inputs": [],
			"name": "finalize",
			"outputs": [],
			"stateMutability": "nonpayable",
			"type": "function"
		},
		{
			"inputs": [],
			"name": "getRate",
			"outputs": [
				{
					"internalType": "uint256",
					"name": "",
					"type": "uint256"
				}
			],
			"stateMutability": "view",
			"type": "function"
		},
		{
			"inputs": [
				{
					"internalType": "uint256",
					"name": "weiAmount",
					"type": "uint256"
				}
			],
			"name": "getTokenAmount",
			"outputs": [
				{
					"internalType": "uint256",
					"name": "",
					"type": "uint256"
				}
			],
			"stateMutability": "view",
			"type": "function"
		},
		{
			"inputs": [],
			"name": "isFinalized",
			"outputs": [
				{
					"internalType": "bool",
					"name": "",
					"type": "bool"
				}
			],
			"stateMutability": "view",
			"type": "function"
		},
		{
			"inputs": [],
			"name": "isOpen",
			"outputs": [
				{
					"internalType": "bool",
					"name": "",
					"type": "bool"
				}
			],
			"stateMutability": "view",
			"type": "function"
		},
		{
			"inputs": [],
			"name": "openingTime",
			"outputs": [
				{
					"internalType": "uint256",
					"name": "",
					"type": "uint256"
				}
			],
			"stateMutability": "view",
			"type": "function"
		},
		{
			"inputs": [],
			"name": "rate",
			"outputs": [
				{
					"internalType": "uint256",
					"name": "",
					"type": "uint256"
				}
			],
			"stateMutability": "view",
			"type": "function"
		},
		{
			"inputs": [],
			"name": "token",
			"outputs": [
				{
					"internalType": "contract MTB",
					"name": "",
					"type": "address"
				}
			],
			"stateMutability": "view",
			"type": "function"
		},
		{
			"inputs": [
				{
					"internalType": "uint256",
					"name": "newRate",
					"type": "uint256"
				}
			],
			"name": "updateRate",
			"outputs": [],
			"stateMutability": "nonpayable",
			"type": "function"
		},
		{
			"inputs": [],
			"name": "wallet",
			"outputs": [
				{
					"internalType": "address payable",
					"name": "",
					"type": "address"
				}
			],
			"stateMutability": "view",
			"type": "function"
		},
		{
			"inputs": [],
			"name": "weiRaised",
			"outputs": [
				{
					"internalType": "uint256",
					"name": "",
					"type": "uint256"
				}
			],
			"stateMutability": "view",
			"type": "function"
		},
		{
			"stateMutability": "payable",
			"type": "receive"
		}
	],
	"bytecode": "0x608060405234801561001057600080fd5b50604051610bf8380380610bf883398101604081905261002f9161013f565b6001600160a01b03861661008a5760405162461bcd60e51b815260206004820152601660248201527f57616c6c6574206973207a65726f20616464726573730000000000000000000060448201526064015b60405180910390fd5b6001600160a01b0385166100e05760405162461bcd60e51b815260206004820152601560248201527f546f6b656e206973207a65726f206164647265737300000000000000000000006044820152606401610081565b600180546001600160a01b039788166001600160a01b031991821617909155600080549690971695169490941790945560039190915560045560059190915560075561019d565b6001600160a01b038116811461013c57600080fd5b50565b60008060008060008060c0878903121561015857600080fd5b865161016381610127565b602088015190965061017481610127565b6040880151606089015160808a015160a0909a0151989b929a5090989097909650945092505050565b610a4c806101ac6000396000f3fe6080604052600436106100f75760003560e01c806369ea17711161008a578063be7cd43b11610059578063be7cd43b1461026d578063c2507ac114610282578063d0febe4c146102a2578063fc0c546a146102aa57600080fd5b806369ea1771146101fd57806370a082311461021d5780638d4e40831461023d578063b7a8807c1461025757600080fd5b80634b6753bc116100c65780634b6753bc146101855780634bb278f31461019b578063521eb273146101b0578063679aefce146101e857600080fd5b80632c4e722e1461010b578063355274ea146101345780634042b66f1461014a57806347535d7b1461016057600080fd5b36610106576101046102ca565b005b600080fd5b34801561011757600080fd5b5061012160075481565b6040519081526020015b60405180910390f35b34801561014057600080fd5b5061012160035481565b34801561015657600080fd5b5061012160025481565b34801561016c57600080fd5b506101756105c6565b604051901515815260200161012b565b34801561019157600080fd5b5061012160055481565b3480156101a757600080fd5b506101046105f0565b3480156101bc57600080fd5b506001546101d0906001600160a01b031681565b6040516001600160a01b03909116815260200161012b565b3480156101f457600080fd5b50600754610121565b34801561020957600080fd5b50610104610218366004610952565b610801565b34801561022957600080fd5b5061012161023836600461096b565b610860565b34801561024957600080fd5b506006546101759060ff1681565b34801561026357600080fd5b5061012160045481565b34801561027957600080fd5b506101216108d5565b34801561028e57600080fd5b5061012161029d366004610952565b610942565b6101046102ca565b3480156102b657600080fd5b506000546101d0906001600160a01b031681565b6102d26105c6565b6103185760405162461bcd60e51b815260206004820152601260248201527121b937bbb239b0b632903737ba1037b832b760711b60448201526064015b60405180910390fd5b60065460ff16156103615760405162461bcd60e51b815260206004820152601360248201527210dc9bddd91cd85b1948199a5b985b1a5e9959606a1b604482015260640161030f565b6003546002543491906103759083906109b1565b11156103b25760405162461bcd60e51b815260206004820152600c60248201526b10d85c08195e18d95959195960a21b604482015260640161030f565b60006103bd82610942565b6000546040516370a0823160e01b815230600482015291925082916001600160a01b03909116906370a0823190602401602060405180830381865afa15801561040a573d6000803e3d6000fd5b505050506040513d601f19601f8201168201806040525081019061042e91906109c4565b101561047c5760405162461bcd60e51b815260206004820152601e60248201527f4e6f7420656e6f75676820746f6b656e7320696e2063726f776473616c650000604482015260640161030f565b816002600082825461048e91906109b1565b9091555050604080518381526020810183905233917f8fafebcaf9d154343dad25669bfa277f4fbacd7ac6b0c4fed522580e040a0f33910160405180910390a260005460405163a9059cbb60e01b8152336004820152602481018390526001600160a01b039091169063a9059cbb906044016020604051808303816000875af115801561051f573d6000803e3d6000fd5b505050506040513d601f19601f8201168201806040525081019061054391906109dd565b6105875760405162461bcd60e51b8152602060048201526015602482015274151bdad95b881d1c985b9cd9995c8819985a5b1959605a1b604482015260640161030f565b6001546040516001600160a01b039091169083156108fc029084906000818181858888f193505050501580156105c1573d6000803e3d6000fd5b505050565b600060045442101580156105dc57506005544211155b80156105eb575060065460ff16155b905090565b6001546001600160a01b0316331461064a5760405162461bcd60e51b815260206004820152601860248201527f4f6e6c792077616c6c65742063616e2066696e616c697a650000000000000000604482015260640161030f565b60055442116106915760405162461bcd60e51b815260206004820152601360248201527210dc9bddd91cd85b19481b9bdd08195b991959606a1b604482015260640161030f565b60065460ff16156106d85760405162461bcd60e51b8152602060048201526011602482015270105b1c9958591e48199a5b985b1a5e9959607a1b604482015260640161030f565b6006805460ff191660011790556040517f9270cc390c096600a1c17c44345a1ba689fafd99d97487b10cfccf86cf73183690600090a1600080546040516370a0823160e01b81523060048201526001600160a01b03909116906370a0823190602401602060405180830381865afa158015610757573d6000803e3d6000fd5b505050506040513d601f19601f8201168201806040525081019061077b91906109c4565b905080156107fe5760005460015460405163a9059cbb60e01b81526001600160a01b0391821660048201526024810184905291169063a9059cbb906044016020604051808303816000875af11580156107d8573d6000803e3d6000fd5b505050506040513d601f19601f820116820180604052508101906107fc91906109dd565b505b50565b6001546001600160a01b0316331461085b5760405162461bcd60e51b815260206004820152601b60248201527f4f6e6c792077616c6c65742063616e2075706461746520726174650000000000604482015260640161030f565b600755565b600080546040516370a0823160e01b81526001600160a01b038481166004830152909116906370a0823190602401602060405180830381865afa1580156108ab573d6000803e3d6000fd5b505050506040513d601f19601f820116820180604052508101906108cf91906109c4565b92915050565b600080546040516370a0823160e01b81523060048201526001600160a01b03909116906370a0823190602401602060405180830381865afa15801561091e573d6000803e3d6000fd5b505050506040513d601f19601f820116820180604052508101906105eb91906109c4565b6000600754826108cf91906109ff565b60006020828403121561096457600080fd5b5035919050565b60006020828403121561097d57600080fd5b81356001600160a01b038116811461099457600080fd5b9392505050565b634e487b7160e01b600052601160045260246000fd5b808201808211156108cf576108cf61099b565b6000602082840312156109d657600080fd5b5051919050565b6000602082840312156109ef57600080fd5b8151801515811461099457600080fd5b80820281158282048414176108cf576108cf61099b56fea2646970667358221220e96c20f5dd46755a46c3fa5ff909c6a143da43e7256ada55af4e1d1894b2d8e764736f6c63430008160033",
	"linkReferences": {},
	"deployedLinkReferences": {}
}